{
  "address": "0x9d0a1E405C3FC70e031667518B4f6264163bDCB1",
  "abi": [
    {
      "inputs": [
        {
          "internalType": "address",
          "name": "_router",
          "type": "address"
        },
        {
          "internalType": "address",
          "name": "_link",
          "type": "address"
        },
        {
          "internalType": "address",
          "name": "nftAddr",
          "type": "address"
        }
      ],
      "stateMutability": "nonpayable",
      "type": "constructor"
    },
    {
      "inputs": [
        {
          "internalType": "address",
          "name": "owner",
          "type": "address"
        },
        {
          "internalType": "address",
          "name": "target",
          "type": "address"
        },
        {
          "internalType": "uint256",
          "name": "value",
          "type": "uint256"
        }
      ],
      "name": "FailedToWithdrawEth",
      "type": "error"
    },
    {
      "inputs": [
        {
          "internalType": "address",
          "name": "router",
          "type": "address"
        }
      ],
      "name": "InvalidRouter",
      "type": "error"
    },
    {
      "inputs": [
        {
          "internalType": "uint256",
          "name": "currentBalance",
          "type": "uint256"
        },
        {
          "internalType": "uint256",
          "name": "calculatedFees",
          "type": "uint256"
        }
      ],
      "name": "NotEnoughBalance",
      "type": "error"
    },
    {
      "inputs": [],
      "name": "NothingToWithdraw",
      "type": "error"
    },
    {
      "anonymous": false,
      "inputs": [
        {
          "indexed": true,
          "internalType": "bytes32",
          "name": "messageId",
          "type": "bytes32"
        },
        {
          "indexed": true,
          "internalType": "uint64",
          "name": "destinationChainSelector",
          "type": "uint64"
        },
        {
          "indexed": false,
          "internalType": "address",
          "name": "receiver",
          "type": "address"
        },
        {
          "indexed": false,
          "internalType": "bytes",
          "name": "text",
          "type": "bytes"
        },
        {
          "indexed": false,
          "internalType": "address",
          "name": "feeToken",
          "type": "address"
        },
        {
          "indexed": false,
          "internalType": "uint256",
          "name": "fees",
          "type": "uint256"
        }
      ],
      "name": "MessageSent",
      "type": "event"
    },
    {
      "anonymous": false,
      "inputs": [
        {
          "indexed": true,
          "internalType": "address",
          "name": "from",
          "type": "address"
        },
        {
          "indexed": true,
          "internalType": "address",
          "name": "to",
          "type": "address"
        }
      ],
      "name": "OwnershipTransferRequested",
      "type": "event"
    },
    {
      "anonymous": false,
      "inputs": [
        {
          "indexed": true,
          "internalType": "address",
          "name": "from",
          "type": "address"
        },
        {
          "indexed": true,
          "internalType": "address",
          "name": "to",
          "type": "address"
        }
      ],
      "name": "OwnershipTransferred",
      "type": "event"
    },
    {
      "inputs": [],
      "name": "acceptOwnership",
      "outputs": [],
      "stateMutability": "nonpayable",
      "type": "function"
    },
    {
      "inputs": [
        {
          "internalType": "uint64",
          "name": "_destinationChainSelector",
          "type": "uint64"
        },
        {
          "internalType": "bool",
          "name": "allowed",
          "type": "bool"
        }
      ],
      "name": "allowlistDestinationChain",
      "outputs": [],
      "stateMutability": "nonpayable",
      "type": "function"
    },
    {
      "inputs": [
        {
          "internalType": "address",
          "name": "_sender",
          "type": "address"
        },
        {
          "internalType": "bool",
          "name": "allowed",
          "type": "bool"
        }
      ],
      "name": "allowlistSender",
      "outputs": [],
      "stateMutability": "nonpayable",
      "type": "function"
    },
    {
      "inputs": [
        {
          "internalType": "uint64",
          "name": "_sourceChainSelector",
          "type": "uint64"
        },
        {
          "internalType": "bool",
          "name": "allowed",
          "type": "bool"
        }
      ],
      "name": "allowlistSourceChain",
      "outputs": [],
      "stateMutability": "nonpayable",
      "type": "function"
    },
    {
      "inputs": [
        {
          "internalType": "uint64",
          "name": "",
          "type": "uint64"
        }
      ],
      "name": "allowlistedDestinationChains",
      "outputs": [
        {
          "internalType": "bool",
          "name": "",
          "type": "bool"
        }
      ],
      "stateMutability": "view",
      "type": "function"
    },
    {
      "inputs": [
        {
          "internalType": "address",
          "name": "",
          "type": "address"
        }
      ],
      "name": "allowlistedSenders",
      "outputs": [
        {
          "internalType": "bool",
          "name": "",
          "type": "bool"
        }
      ],
      "stateMutability": "view",
      "type": "function"
    },
    {
      "inputs": [
        {
          "internalType": "uint64",
          "name": "",
          "type": "uint64"
        }
      ],
      "name": "allowlistedSourceChains",
      "outputs": [
        {
          "internalType": "bool",
          "name": "",
          "type": "bool"
        }
      ],
      "stateMutability": "view",
      "type": "function"
    },
    {
      "inputs": [
        {
          "components": [
            {
              "internalType": "bytes32",
              "name": "messageId",
              "type": "bytes32"
            },
            {
              "internalType": "uint64",
              "name": "sourceChainSelector",
              "type": "uint64"
            },
            {
              "internalType": "bytes",
              "name": "sender",
              "type": "bytes"
            },
            {
              "internalType": "bytes",
              "name": "data",
              "type": "bytes"
            },
            {
              "components": [
                {
                  "internalType": "address",
                  "name": "token",
                  "type": "address"
                },
                {
                  "internalType": "uint256",
                  "name": "amount",
                  "type": "uint256"
                }
              ],
              "internalType": "struct Client.EVMTokenAmount[]",
              "name": "destTokenAmounts",
              "type": "tuple[]"
            }
          ],
          "internalType": "struct Client.Any2EVMMessage",
          "name": "message",
          "type": "tuple"
        }
      ],
      "name": "ccipReceive",
      "outputs": [],
      "stateMutability": "nonpayable",
      "type": "function"
    },
    {
      "inputs": [],
      "name": "getLastReceivedMessageDetails",
      "outputs": [
        {
          "internalType": "bytes32",
          "name": "messageId",
          "type": "bytes32"
        },
        {
          "internalType": "string",
          "name": "text",
          "type": "string"
        }
      ],
      "stateMutability": "view",
      "type": "function"
    },
    {
      "inputs": [],
      "name": "getRouter",
      "outputs": [
        {
          "internalType": "address",
          "name": "",
          "type": "address"
        }
      ],
      "stateMutability": "view",
      "type": "function"
    },
    {
      "inputs": [
        {
          "internalType": "uint256",
          "name": "tokenId",
          "type": "uint256"
        },
        {
          "internalType": "address",
          "name": "newOwner",
          "type": "address"
        },
        {
          "internalType": "uint64",
          "name": "destChainSelector",
          "type": "uint64"
        },
        {
          "internalType": "address",
          "name": "destReceiver",
          "type": "address"
        }
      ],
      "name": "lockAndSendNFT",
      "outputs": [
        {
          "internalType": "bytes32",
          "name": "",
          "type": "bytes32"
        }
      ],
      "stateMutability": "nonpayable",
      "type": "function"
    },
    {
      "inputs": [],
      "name": "nft",
      "outputs": [
        {
          "internalType": "contract MyNFT",
          "name": "",
          "type": "address"
        }
      ],
      "stateMutability": "view",
      "type": "function"
    },
    {
      "inputs": [],
      "name": "owner",
      "outputs": [
        {
          "internalType": "address",
          "name": "",
          "type": "address"
        }
      ],
      "stateMutability": "view",
      "type": "function"
    },
    {
      "inputs": [
        {
          "internalType": "bytes4",
          "name": "interfaceId",
          "type": "bytes4"
        }
      ],
      "name": "supportsInterface",
      "outputs": [
        {
          "internalType": "bool",
          "name": "",
          "type": "bool"
        }
      ],
      "stateMutability": "view",
      "type": "function"
    },
    {
      "inputs": [
        {
          "internalType": "uint256",
          "name": "",
          "type": "uint256"
        }
      ],
      "name": "tokenLocked",
      "outputs": [
        {
          "internalType": "bool",
          "name": "",
          "type": "bool"
        }
      ],
      "stateMutability": "view",
      "type": "function"
    },
    {
      "inputs": [
        {
          "internalType": "address",
          "name": "to",
          "type": "address"
        }
      ],
      "name": "transferOwnership",
      "outputs": [],
      "stateMutability": "nonpayable",
      "type": "function"
    },
    {
      "inputs": [
        {
          "internalType": "address",
          "name": "_beneficiary",
          "type": "address"
        }
      ],
      "name": "withdraw",
      "outputs": [],
      "stateMutability": "nonpayable",
      "type": "function"
    },
    {
      "inputs": [
        {
          "internalType": "address",
          "name": "_beneficiary",
          "type": "address"
        },
        {
          "internalType": "address",
          "name": "_token",
          "type": "address"
        }
      ],
      "name": "withdrawToken",
      "outputs": [],
      "stateMutability": "nonpayable",
      "type": "function"
    },
    {
      "stateMutability": "payable",
      "type": "receive"
    }
  ],
  "transactionHash": "0x7b42e83541de1e066026e1597f6e5615c336b89d346f49977f7b4d8cd9647bcf",
  "args": [
    "0x0BF3dE8c5D3e8A2B34D2BEeB17ABfCeBaf363A59",
    "0x779877A7B0D9E8603169DdbD7836e478b4624789",
    "0xD0b6323e398878Dd263929DB3284DD6e298aF7b3"
  ],
  "numDeployments": 1,
  "solcInputHash": "6b3f307df49de7672e60cbdd804e98cf",
  "bytecode": "0x60a060405234801561001057600080fd5b5060405161301e38038061301e833981810160405281019061003291906103ed565b3380600085600073ffffffffffffffffffffffffffffffffffffffff168173ffffffffffffffffffffffffffffffffffffffff16036100a95760006040517fd7f733340000000000000000000000000000000000000000000000000000000081526004016100a0919061044f565b60405180910390fd5b8073ffffffffffffffffffffffffffffffffffffffff1660808173ffffffffffffffffffffffffffffffffffffffff168152505050600073ffffffffffffffffffffffffffffffffffffffff168273ffffffffffffffffffffffffffffffffffffffff160361014d576040517f08c379a0000000000000000000000000000000000000000000000000000000008152600401610144906104c7565b60405180910390fd5b816000806101000a81548173ffffffffffffffffffffffffffffffffffffffff021916908373ffffffffffffffffffffffffffffffffffffffff160217905550600073ffffffffffffffffffffffffffffffffffffffff168173ffffffffffffffffffffffffffffffffffffffff16146101d1576101d08161025e60201b60201c565b5b50505081600760006101000a81548173ffffffffffffffffffffffffffffffffffffffff021916908373ffffffffffffffffffffffffffffffffffffffff16021790555080600860006101000a81548173ffffffffffffffffffffffffffffffffffffffff021916908373ffffffffffffffffffffffffffffffffffffffff160217905550505050610553565b3373ffffffffffffffffffffffffffffffffffffffff168173ffffffffffffffffffffffffffffffffffffffff16036102cc576040517f08c379a00000000000000000000000000000000000000000000000000000000081526004016102c390610533565b60405180910390fd5b80600160006101000a81548173ffffffffffffffffffffffffffffffffffffffff021916908373ffffffffffffffffffffffffffffffffffffffff1602179055508073ffffffffffffffffffffffffffffffffffffffff1660008054906101000a900473ffffffffffffffffffffffffffffffffffffffff1673ffffffffffffffffffffffffffffffffffffffff167fed8889f560326eb138920d842192f0eb3dd22b4f139c87a2c57538e05bae127860405160405180910390a350565b600080fd5b600073ffffffffffffffffffffffffffffffffffffffff82169050919050565b60006103ba8261038f565b9050919050565b6103ca816103af565b81146103d557600080fd5b50565b6000815190506103e7816103c1565b92915050565b6000806000606084860312156104065761040561038a565b5b6000610414868287016103d8565b9350506020610425868287016103d8565b9250506040610436868287016103d8565b9150509250925092565b610449816103af565b82525050565b60006020820190506104646000830184610440565b92915050565b600082825260208201905092915050565b7f43616e6e6f7420736574206f776e657220746f207a65726f0000000000000000600082015250565b60006104b160188361046a565b91506104bc8261047b565b602082019050919050565b600060208201905081810360008301526104e0816104a4565b9050919050565b7f43616e6e6f74207472616e7366657220746f2073656c66000000000000000000600082015250565b600061051d60178361046a565b9150610528826104e7565b602082019050919050565b6000602082019050818103600083015261054c81610510565b9050919050565b608051612ab061056e6000396000610b060152612ab06000f3fe60806040526004361061010d5760003560e01c806379ba509711610095578063b0f479a111610064578063b0f479a114610387578063db04fa49146103b2578063e34ed575146103db578063eab5b02c14610418578063f2fde38b1461044157610114565b806379ba5097146102f357806385572ffb1461030a5780638da5cb5b1461033357806396d3b83d1461035e57610114565b806346694b7d116100dc57806346694b7d146101e857806347ccca021461022557806351cff8d9146102505780636159ada11461027957806375c67c66146102b657610114565b806301ffc9a714610119578063263596a5146101565780633aeac4e1146101825780634030d521146101ab57610114565b3661011457005b600080fd5b34801561012557600080fd5b50610140600480360381019061013b919061189d565b61046a565b60405161014d91906118e5565b60405180910390f35b34801561016257600080fd5b5061016b61053c565b6040516101799291906119a9565b60405180910390f35b34801561018e57600080fd5b506101a960048036038101906101a49190611a37565b6105d9565b005b3480156101b757600080fd5b506101d260048036038101906101cd9190611ab7565b6106c9565b6040516101df91906118e5565b60405180910390f35b3480156101f457600080fd5b5061020f600480360381019061020a9190611b1a565b6106e9565b60405161021c91906118e5565b60405180910390f35b34801561023157600080fd5b5061023a610709565b6040516102479190611ba6565b60405180910390f35b34801561025c57600080fd5b5061027760048036038101906102729190611bc1565b61072f565b005b34801561028557600080fd5b506102a0600480360381019061029b9190611bc1565b61082d565b6040516102ad91906118e5565b60405180910390f35b3480156102c257600080fd5b506102dd60048036038101906102d89190611ab7565b61084d565b6040516102ea91906118e5565b60405180910390f35b3480156102ff57600080fd5b5061030861086d565b005b34801561031657600080fd5b50610331600480360381019061032c9190611c12565b610a02565b005b34801561033f57600080fd5b50610348610a8e565b6040516103559190611c6a565b60405180910390f35b34801561036a57600080fd5b5061038560048036038101906103809190611cb1565b610ab7565b005b34801561039357600080fd5b5061039c610b02565b6040516103a99190611c6a565b60405180910390f35b3480156103be57600080fd5b506103d960048036038101906103d49190611cb1565b610b2a565b005b3480156103e757600080fd5b5061040260048036038101906103fd9190611cf1565b610b75565b60405161040f9190611d58565b60405180910390f35b34801561042457600080fd5b5061043f600480360381019061043a9190611d73565b610c76565b005b34801561044d57600080fd5b5061046860048036038101906104639190611bc1565b610cd9565b005b60007f85572ffb000000000000000000000000000000000000000000000000000000007bffffffffffffffffffffffffffffffffffffffffffffffffffffffff1916827bffffffffffffffffffffffffffffffffffffffffffffffffffffffff1916148061053557507f01ffc9a7000000000000000000000000000000000000000000000000000000007bffffffffffffffffffffffffffffffffffffffffffffffffffffffff1916827bffffffffffffffffffffffffffffffffffffffffffffffffffffffff1916145b9050919050565b60006060600254600380805461055190611de2565b80601f016020809104026020016040519081016040528092919081815260200182805461057d90611de2565b80156105ca5780601f1061059f576101008083540402835291602001916105ca565b820191906000526020600020905b8154815290600101906020018083116105ad57829003601f168201915b50505050509050915091509091565b6105e1610ced565b60008173ffffffffffffffffffffffffffffffffffffffff166370a08231306040518263ffffffff1660e01b815260040161061c9190611c6a565b602060405180830381865afa158015610639573d6000803e3d6000fd5b505050506040513d601f19601f8201168201806040525081019061065d9190611e28565b905060008103610699576040517fd0d04f6000000000000000000000000000000000000000000000000000000000815260040160405180910390fd5b6106c483828473ffffffffffffffffffffffffffffffffffffffff16610d7d9092919063ffffffff16565b505050565b60056020528060005260406000206000915054906101000a900460ff1681565b60096020528060005260406000206000915054906101000a900460ff1681565b600860009054906101000a900473ffffffffffffffffffffffffffffffffffffffff1681565b610737610ced565b600047905060008103610776576040517fd0d04f6000000000000000000000000000000000000000000000000000000000815260040160405180910390fd5b60008273ffffffffffffffffffffffffffffffffffffffff168260405161079c90611e86565b60006040518083038185875af1925050503d80600081146107d9576040519150601f19603f3d011682016040523d82523d6000602084013e6107de565b606091505b5050905080610828573383836040517f9d11f56300000000000000000000000000000000000000000000000000000000815260040161081f93929190611eaa565b60405180910390fd5b505050565b60066020528060005260406000206000915054906101000a900460ff1681565b60046020528060005260406000206000915054906101000a900460ff1681565b600160009054906101000a900473ffffffffffffffffffffffffffffffffffffffff1673ffffffffffffffffffffffffffffffffffffffff163373ffffffffffffffffffffffffffffffffffffffff16146108fd576040517f08c379a00000000000000000000000000000000000000000000000000000000081526004016108f490611f2d565b60405180910390fd5b60008060009054906101000a900473ffffffffffffffffffffffffffffffffffffffff169050336000806101000a81548173ffffffffffffffffffffffffffffffffffffffff021916908373ffffffffffffffffffffffffffffffffffffffff1602179055506000600160006101000a81548173ffffffffffffffffffffffffffffffffffffffff021916908373ffffffffffffffffffffffffffffffffffffffff1602179055503373ffffffffffffffffffffffffffffffffffffffff168173ffffffffffffffffffffffffffffffffffffffff167f8be0079c531659141344cd1fd0a4f28419497f9722a3daafe3b4186f6b6457e060405160405180910390a350565b610a0a610b02565b73ffffffffffffffffffffffffffffffffffffffff163373ffffffffffffffffffffffffffffffffffffffff1614610a7957336040517fd7f73334000000000000000000000000000000000000000000000000000000008152600401610a709190611c6a565b60405180910390fd5b610a8b81610a86906122b0565b610e03565b50565b60008060009054906101000a900473ffffffffffffffffffffffffffffffffffffffff16905090565b610abf610ced565b80600460008467ffffffffffffffff1667ffffffffffffffff16815260200190815260200160002060006101000a81548160ff0219169083151502179055505050565b60007f0000000000000000000000000000000000000000000000000000000000000000905090565b610b32610ced565b80600560008467ffffffffffffffff1667ffffffffffffffff16815260200190815260200160002060006101000a81548160ff0219169083151502179055505050565b6000600860009054906101000a900473ffffffffffffffffffffffffffffffffffffffff1673ffffffffffffffffffffffffffffffffffffffff166323b872dd3330886040518463ffffffff1660e01b8152600401610bd693929190611eaa565b600060405180830381600087803b158015610bf057600080fd5b505af1158015610c04573d6000803e3d6000fd5b5050505060008585604051602001610c1d9291906122c3565b60405160208183030381529060405290506000610c3b858584610f33565b905060016009600089815260200190815260200160002060006101000a81548160ff0219169083151502179055508092505050949350505050565b610c7e610ced565b80600660008473ffffffffffffffffffffffffffffffffffffffff1673ffffffffffffffffffffffffffffffffffffffff16815260200190815260200160002060006101000a81548160ff0219169083151502179055505050565b610ce1610ced565b610cea816113c2565b50565b60008054906101000a900473ffffffffffffffffffffffffffffffffffffffff1673ffffffffffffffffffffffffffffffffffffffff163373ffffffffffffffffffffffffffffffffffffffff1614610d7b576040517f08c379a0000000000000000000000000000000000000000000000000000000008152600401610d7290612338565b60405180910390fd5b565b610dfe8363a9059cbb60e01b8484604051602401610d9c929190612358565b604051602081830303815290604052907bffffffffffffffffffffffffffffffffffffffffffffffffffffffff19166020820180517bffffffffffffffffffffffffffffffffffffffffffffffffffffffff83818316178352505050506114ee565b505050565b806000015160028190555060008160600151806020019051810190610e2891906123e6565b90506000816000015190506000826020015190506009600083815260200190815260200160002060009054906101000a900460ff16610e9c576040517f08c379a0000000000000000000000000000000000000000000000000000000008152600401610e939061245f565b60405180910390fd5b600860009054906101000a900473ffffffffffffffffffffffffffffffffffffffff1673ffffffffffffffffffffffffffffffffffffffff166323b872dd3083856040518463ffffffff1660e01b8152600401610efb93929190611eaa565b600060405180830381600087803b158015610f1557600080fd5b505af1158015610f29573d6000803e3d6000fd5b5050505050505050565b600080610f3e610b02565b905060006040518060a0016040528086604051602001610f5e9190611c6a565b6040516020818303038152906040528152602001858152602001600067ffffffffffffffff811115610f9357610f92611f52565b5b604051908082528060200260200182016040528015610fcc57816020015b610fb9611801565b815260200190600190039081610fb15790505b508152602001600760009054906101000a900473ffffffffffffffffffffffffffffffffffffffff1673ffffffffffffffffffffffffffffffffffffffff16815260200161102a604051806020016040528062030d408152506115b5565b815250905060008273ffffffffffffffffffffffffffffffffffffffff166320487ded88846040518363ffffffff1660e01b815260040161106c92919061266a565b602060405180830381865afa158015611089573d6000803e3d6000fd5b505050506040513d601f19601f820116820180604052508101906110ad9190611e28565b9050600760009054906101000a900473ffffffffffffffffffffffffffffffffffffffff1673ffffffffffffffffffffffffffffffffffffffff166370a08231306040518263ffffffff1660e01b815260040161110a9190611c6a565b602060405180830381865afa158015611127573d6000803e3d6000fd5b505050506040513d601f19601f8201168201806040525081019061114b9190611e28565b81111561122c57600760009054906101000a900473ffffffffffffffffffffffffffffffffffffffff1673ffffffffffffffffffffffffffffffffffffffff166370a08231306040518263ffffffff1660e01b81526004016111ad9190611c6a565b602060405180830381865afa1580156111ca573d6000803e3d6000fd5b505050506040513d601f19601f820116820180604052508101906111ee9190611e28565b816040517f8f0f420600000000000000000000000000000000000000000000000000000000815260040161122392919061269a565b60405180910390fd5b600760009054906101000a900473ffffffffffffffffffffffffffffffffffffffff1673ffffffffffffffffffffffffffffffffffffffff1663095ea7b384836040518363ffffffff1660e01b8152600401611289929190612358565b6020604051808303816000875af11580156112a8573d6000803e3d6000fd5b505050506040513d601f19601f820116820180604052508101906112cc91906126d8565b508273ffffffffffffffffffffffffffffffffffffffff166396f4e9f988846040518363ffffffff1660e01b815260040161130892919061266a565b6020604051808303816000875af1158015611327573d6000803e3d6000fd5b505050506040513d601f19601f8201168201806040525081019061134b919061271a565b93508667ffffffffffffffff16847f3d8a9f055772202d2c3c1fddbad930d3dbe588d8692b75b84cee0719462829118888600760009054906101000a900473ffffffffffffffffffffffffffffffffffffffff16866040516113b09493929190612791565b60405180910390a35050509392505050565b3373ffffffffffffffffffffffffffffffffffffffff168173ffffffffffffffffffffffffffffffffffffffff1603611430576040517f08c379a000000000000000000000000000000000000000000000000000000000815260040161142790612829565b60405180910390fd5b80600160006101000a81548173ffffffffffffffffffffffffffffffffffffffff021916908373ffffffffffffffffffffffffffffffffffffffff1602179055508073ffffffffffffffffffffffffffffffffffffffff1660008054906101000a900473ffffffffffffffffffffffffffffffffffffffff1673ffffffffffffffffffffffffffffffffffffffff167fed8889f560326eb138920d842192f0eb3dd22b4f139c87a2c57538e05bae127860405160405180910390a350565b6000611550826040518060400160405280602081526020017f5361666545524332303a206c6f772d6c6576656c2063616c6c206661696c65648152508573ffffffffffffffffffffffffffffffffffffffff166116349092919063ffffffff16565b90506000815111156115b0578080602001905181019061157091906126d8565b6115af576040517f08c379a00000000000000000000000000000000000000000000000000000000081526004016115a6906128bb565b60405180910390fd5b5b505050565b60606397a657c960e01b826040516024016115d091906128f7565b604051602081830303815290604052907bffffffffffffffffffffffffffffffffffffffffffffffffffffffff19166020820180517bffffffffffffffffffffffffffffffffffffffffffffffffffffffff83818316178352505050509050919050565b6060611643848460008561164c565b90509392505050565b606082471015611691576040517f08c379a000000000000000000000000000000000000000000000000000000000815260040161168890612984565b60405180910390fd5b6000808673ffffffffffffffffffffffffffffffffffffffff1685876040516116ba91906129d5565b60006040518083038185875af1925050503d80600081146116f7576040519150601f19603f3d011682016040523d82523d6000602084013e6116fc565b606091505b509150915061170d87838387611719565b92505050949350505050565b6060831561177b576000835103611773576117338561178e565b611772576040517f08c379a000000000000000000000000000000000000000000000000000000000815260040161176990612a38565b60405180910390fd5b5b829050611786565b61178583836117b1565b5b949350505050565b6000808273ffffffffffffffffffffffffffffffffffffffff163b119050919050565b6000825111156117c45781518083602001fd5b806040517f08c379a00000000000000000000000000000000000000000000000000000000081526004016117f89190612a58565b60405180910390fd5b6040518060400160405280600073ffffffffffffffffffffffffffffffffffffffff168152602001600081525090565b6000604051905090565b600080fd5b600080fd5b60007fffffffff0000000000000000000000000000000000000000000000000000000082169050919050565b61187a81611845565b811461188557600080fd5b50565b60008135905061189781611871565b92915050565b6000602082840312156118b3576118b261183b565b5b60006118c184828501611888565b91505092915050565b60008115159050919050565b6118df816118ca565b82525050565b60006020820190506118fa60008301846118d6565b92915050565b6000819050919050565b61191381611900565b82525050565b600081519050919050565b600082825260208201905092915050565b60005b83811015611953578082015181840152602081019050611938565b60008484015250505050565b6000601f19601f8301169050919050565b600061197b82611919565b6119858185611924565b9350611995818560208601611935565b61199e8161195f565b840191505092915050565b60006040820190506119be600083018561190a565b81810360208301526119d08184611970565b90509392505050565b600073ffffffffffffffffffffffffffffffffffffffff82169050919050565b6000611a04826119d9565b9050919050565b611a14816119f9565b8114611a1f57600080fd5b50565b600081359050611a3181611a0b565b92915050565b60008060408385031215611a4e57611a4d61183b565b5b6000611a5c85828601611a22565b9250506020611a6d85828601611a22565b9150509250929050565b600067ffffffffffffffff82169050919050565b611a9481611a77565b8114611a9f57600080fd5b50565b600081359050611ab181611a8b565b92915050565b600060208284031215611acd57611acc61183b565b5b6000611adb84828501611aa2565b91505092915050565b6000819050919050565b611af781611ae4565b8114611b0257600080fd5b50565b600081359050611b1481611aee565b92915050565b600060208284031215611b3057611b2f61183b565b5b6000611b3e84828501611b05565b91505092915050565b6000819050919050565b6000611b6c611b67611b62846119d9565b611b47565b6119d9565b9050919050565b6000611b7e82611b51565b9050919050565b6000611b9082611b73565b9050919050565b611ba081611b85565b82525050565b6000602082019050611bbb6000830184611b97565b92915050565b600060208284031215611bd757611bd661183b565b5b6000611be584828501611a22565b91505092915050565b600080fd5b600060a08284031215611c0957611c08611bee565b5b81905092915050565b600060208284031215611c2857611c2761183b565b5b600082013567ffffffffffffffff811115611c4657611c45611840565b5b611c5284828501611bf3565b91505092915050565b611c64816119f9565b82525050565b6000602082019050611c7f6000830184611c5b565b92915050565b611c8e816118ca565b8114611c9957600080fd5b50565b600081359050611cab81611c85565b92915050565b60008060408385031215611cc857611cc761183b565b5b6000611cd685828601611aa2565b9250506020611ce785828601611c9c565b9150509250929050565b60008060008060808587031215611d0b57611d0a61183b565b5b6000611d1987828801611b05565b9450506020611d2a87828801611a22565b9350506040611d3b87828801611aa2565b9250506060611d4c87828801611a22565b91505092959194509250565b6000602082019050611d6d600083018461190a565b92915050565b60008060408385031215611d8a57611d8961183b565b5b6000611d9885828601611a22565b9250506020611da985828601611c9c565b9150509250929050565b7f4e487b7100000000000000000000000000000000000000000000000000000000600052602260045260246000fd5b60006002820490506001821680611dfa57607f821691505b602082108103611e0d57611e0c611db3565b5b50919050565b600081519050611e2281611aee565b92915050565b600060208284031215611e3e57611e3d61183b565b5b6000611e4c84828501611e13565b91505092915050565b600081905092915050565b50565b6000611e70600083611e55565b9150611e7b82611e60565b600082019050919050565b6000611e9182611e63565b9150819050919050565b611ea481611ae4565b82525050565b6000606082019050611ebf6000830186611c5b565b611ecc6020830185611c5b565b611ed96040830184611e9b565b949350505050565b7f4d7573742062652070726f706f736564206f776e657200000000000000000000600082015250565b6000611f17601683611924565b9150611f2282611ee1565b602082019050919050565b60006020820190508181036000830152611f4681611f0a565b9050919050565b600080fd5b7f4e487b7100000000000000000000000000000000000000000000000000000000600052604160045260246000fd5b611f8a8261195f565b810181811067ffffffffffffffff82111715611fa957611fa8611f52565b5b80604052505050565b6000611fbc611831565b9050611fc88282611f81565b919050565b600080fd5b611fdb81611900565b8114611fe657600080fd5b50565b600081359050611ff881611fd2565b92915050565b600080fd5b600080fd5b600067ffffffffffffffff82111561202357612022611f52565b5b61202c8261195f565b9050602081019050919050565b82818337600083830152505050565b600061205b61205684612008565b611fb2565b90508281526020810184848401111561207757612076612003565b5b612082848285612039565b509392505050565b600082601f83011261209f5761209e611ffe565b5b81356120af848260208601612048565b91505092915050565b600067ffffffffffffffff8211156120d3576120d2611f52565b5b602082029050602081019050919050565b600080fd5b6000604082840312156120ff576120fe611f4d565b5b6121096040611fb2565b9050600061211984828501611a22565b600083015250602061212d84828501611b05565b60208301525092915050565b600061214c612147846120b8565b611fb2565b9050808382526020820190506040840283018581111561216f5761216e6120e4565b5b835b81811015612198578061218488826120e9565b845260208401935050604081019050612171565b5050509392505050565b600082601f8301126121b7576121b6611ffe565b5b81356121c7848260208601612139565b91505092915050565b600060a082840312156121e6576121e5611f4d565b5b6121f060a0611fb2565b9050600061220084828501611fe9565b600083015250602061221484828501611aa2565b602083015250604082013567ffffffffffffffff81111561223857612237611fcd565b5b6122448482850161208a565b604083015250606082013567ffffffffffffffff81111561226857612267611fcd565b5b6122748482850161208a565b606083015250608082013567ffffffffffffffff81111561229857612297611fcd565b5b6122a4848285016121a2565b60808301525092915050565b60006122bc36836121d0565b9050919050565b60006040820190506122d86000830185611e9b565b6122e56020830184611c5b565b9392505050565b7f4f6e6c792063616c6c61626c65206279206f776e657200000000000000000000600082015250565b6000612322601683611924565b915061232d826122ec565b602082019050919050565b6000602082019050818103600083015261235181612315565b9050919050565b600060408201905061236d6000830185611c5b565b61237a6020830184611e9b565b9392505050565b60008151905061239081611a0b565b92915050565b6000604082840312156123ac576123ab611f4d565b5b6123b66040611fb2565b905060006123c684828501611e13565b60008301525060206123da84828501612381565b60208301525092915050565b6000604082840312156123fc576123fb61183b565b5b600061240a84828501612396565b91505092915050565b7f746865204e4654206973206e6f74206c6f636b65640000000000000000000000600082015250565b6000612449601583611924565b915061245482612413565b602082019050919050565b600060208201905081810360008301526124788161243c565b9050919050565b61248881611a77565b82525050565b600081519050919050565b600082825260208201905092915050565b60006124b58261248e565b6124bf8185612499565b93506124cf818560208601611935565b6124d88161195f565b840191505092915050565b600081519050919050565b600082825260208201905092915050565b6000819050602082019050919050565b612518816119f9565b82525050565b61252781611ae4565b82525050565b604082016000820151612543600085018261250f565b506020820151612556602085018261251e565b50505050565b6000612568838361252d565b60408301905092915050565b6000602082019050919050565b600061258c826124e3565b61259681856124ee565b93506125a1836124ff565b8060005b838110156125d25781516125b9888261255c565b97506125c483612574565b9250506001810190506125a5565b5085935050505092915050565b600060a08301600083015184820360008601526125fc82826124aa565b9150506020830151848203602086015261261682826124aa565b915050604083015184820360408601526126308282612581565b9150506060830151612645606086018261250f565b506080830151848203608086015261265d82826124aa565b9150508091505092915050565b600060408201905061267f600083018561247f565b818103602083015261269181846125df565b90509392505050565b60006040820190506126af6000830185611e9b565b6126bc6020830184611e9b565b9392505050565b6000815190506126d281611c85565b92915050565b6000602082840312156126ee576126ed61183b565b5b60006126fc848285016126c3565b91505092915050565b60008151905061271481611fd2565b92915050565b6000602082840312156127305761272f61183b565b5b600061273e84828501612705565b91505092915050565b600082825260208201905092915050565b60006127638261248e565b61276d8185612747565b935061277d818560208601611935565b6127868161195f565b840191505092915050565b60006080820190506127a66000830187611c5b565b81810360208301526127b88186612758565b90506127c76040830185611c5b565b6127d46060830184611e9b565b95945050505050565b7f43616e6e6f74207472616e7366657220746f2073656c66000000000000000000600082015250565b6000612813601783611924565b915061281e826127dd565b602082019050919050565b6000602082019050818103600083015261284281612806565b9050919050565b7f5361666545524332303a204552433230206f7065726174696f6e20646964206e60008201527f6f74207375636365656400000000000000000000000000000000000000000000602082015250565b60006128a5602a83611924565b91506128b082612849565b604082019050919050565b600060208201905081810360008301526128d481612898565b9050919050565b6020820160008201516128f1600085018261251e565b50505050565b600060208201905061290c60008301846128db565b92915050565b7f416464726573733a20696e73756666696369656e742062616c616e636520666f60008201527f722063616c6c0000000000000000000000000000000000000000000000000000602082015250565b600061296e602683611924565b915061297982612912565b604082019050919050565b6000602082019050818103600083015261299d81612961565b9050919050565b60006129af8261248e565b6129b98185611e55565b93506129c9818560208601611935565b80840191505092915050565b60006129e182846129a4565b915081905092915050565b7f416464726573733a2063616c6c20746f206e6f6e2d636f6e7472616374000000600082015250565b6000612a22601d83611924565b9150612a2d826129ec565b602082019050919050565b60006020820190508181036000830152612a5181612a15565b9050919050565b60006020820190508181036000830152612a728184611970565b90509291505056fea26469706673582212201956fecfc046dd76d1934045affe5535109617fdbe724f5aa3b655fc4827daf564736f6c634300081b0033",
  "devdoc": {
    "kind": "dev",
    "methods": {
      "ccipReceive((bytes32,uint64,bytes,bytes,(address,uint256)[]))": {
        "details": "Note ensure you check the msg.sender is the OffRampRouter.",
        "params": {
          "message": "CCIP Message."
        }
      },
      "getRouter()": {
        "returns": {
          "_0": "CCIP router address"
        }
      },
      "supportsInterface(bytes4)": {
        "details": "Should indicate whether the contract implements IAny2EVMMessageReceiver. e.g. return interfaceId == type(IAny2EVMMessageReceiver).interfaceId || interfaceId == type(IERC165).interfaceId This allows CCIP to check if ccipReceive is available before calling it. - If this returns false or reverts, only tokens are transferred to the receiver. - If this returns true, tokens are transferred and ccipReceive is called atomically. Additionally, if the receiver address does not have code associated with it at the time of execution (EXTCODESIZE returns 0), only tokens will be transferred.",
        "params": {
          "interfaceId": "The interfaceId to check."
        },
        "returns": {
          "_0": "true if the interfaceId is supported."
        }
      }
    },
    "version": 1
  },
  "userdoc": {
    "kind": "user",
    "methods": {
      "acceptOwnership()": {
        "notice": "Allows an ownership transfer to be completed by the recipient."
      },
      "ccipReceive((bytes32,uint64,bytes,bytes,(address,uint256)[]))": {
        "notice": "Called by the Router to deliver a message. If this reverts, any token transfers also revert. The message will move to a FAILED state and become available for manual execution."
      },
      "getRouter()": {
        "notice": "Return the current router"
      },
      "owner()": {
        "notice": "Get the current owner"
      },
      "supportsInterface(bytes4)": {
        "notice": "IERC165 supports an interfaceId."
      },
      "transferOwnership(address)": {
        "notice": "Allows an owner to begin transferring ownership to a new address."
      }
    },
    "version": 1
  },
  "storageLayout": {
    "storage": [
      {
        "astId": 1657,
        "contract": "contracts/LockAndReleaseNFT.sol:LockAndReleaseNFT",
        "label": "s_owner",
        "offset": 0,
        "slot": "0",
        "type": "t_address"
      },
      {
        "astId": 1659,
        "contract": "contracts/LockAndReleaseNFT.sol:LockAndReleaseNFT",
        "label": "s_pendingOwner",
        "offset": 0,
        "slot": "1",
        "type": "t_address"
      },
      {
        "astId": 12785,
        "contract": "contracts/LockAndReleaseNFT.sol:LockAndReleaseNFT",
        "label": "s_lastReceivedMessageId",
        "offset": 0,
        "slot": "2",
        "type": "t_bytes32"
      },
      {
        "astId": 12787,
        "contract": "contracts/LockAndReleaseNFT.sol:LockAndReleaseNFT",
        "label": "s_lastReceivedText",
        "offset": 0,
        "slot": "3",
        "type": "t_string_storage"
      },
      {
        "astId": 12791,
        "contract": "contracts/LockAndReleaseNFT.sol:LockAndReleaseNFT",
        "label": "allowlistedDestinationChains",
        "offset": 0,
        "slot": "4",
        "type": "t_mapping(t_uint64,t_bool)"
      },
      {
        "astId": 12795,
        "contract": "contracts/LockAndReleaseNFT.sol:LockAndReleaseNFT",
        "label": "allowlistedSourceChains",
        "offset": 0,
        "slot": "5",
        "type": "t_mapping(t_uint64,t_bool)"
      },
      {
        "astId": 12799,
        "contract": "contracts/LockAndReleaseNFT.sol:LockAndReleaseNFT",
        "label": "allowlistedSenders",
        "offset": 0,
        "slot": "6",
        "type": "t_mapping(t_address,t_bool)"
      },
      {
        "astId": 12802,
        "contract": "contracts/LockAndReleaseNFT.sol:LockAndReleaseNFT",
        "label": "s_linkToken",
        "offset": 0,
        "slot": "7",
        "type": "t_contract(IERC20)3261"
      },
      {
        "astId": 12805,
        "contract": "contracts/LockAndReleaseNFT.sol:LockAndReleaseNFT",
        "label": "nft",
        "offset": 0,
        "slot": "8",
        "type": "t_contract(MyNFT)13812"
      },
      {
        "astId": 12809,
        "contract": "contracts/LockAndReleaseNFT.sol:LockAndReleaseNFT",
        "label": "tokenLocked",
        "offset": 0,
        "slot": "9",
        "type": "t_mapping(t_uint256,t_bool)"
      }
    ],
    "types": {
      "t_address": {
        "encoding": "inplace",
        "label": "address",
        "numberOfBytes": "20"
      },
      "t_bool": {
        "encoding": "inplace",
        "label": "bool",
        "numberOfBytes": "1"
      },
      "t_bytes32": {
        "encoding": "inplace",
        "label": "bytes32",
        "numberOfBytes": "32"
      },
      "t_contract(IERC20)3261": {
        "encoding": "inplace",
        "label": "contract IERC20",
        "numberOfBytes": "20"
      },
      "t_contract(MyNFT)13812": {
        "encoding": "inplace",
        "label": "contract MyNFT",
        "numberOfBytes": "20"
      },
      "t_mapping(t_address,t_bool)": {
        "encoding": "mapping",
        "key": "t_address",
        "label": "mapping(address => bool)",
        "numberOfBytes": "32",
        "value": "t_bool"
      },
      "t_mapping(t_uint256,t_bool)": {
        "encoding": "mapping",
        "key": "t_uint256",
        "label": "mapping(uint256 => bool)",
        "numberOfBytes": "32",
        "value": "t_bool"
      },
      "t_mapping(t_uint64,t_bool)": {
        "encoding": "mapping",
        "key": "t_uint64",
        "label": "mapping(uint64 => bool)",
        "numberOfBytes": "32",
        "value": "t_bool"
      },
      "t_string_storage": {
        "encoding": "bytes",
        "label": "string",
        "numberOfBytes": "32"
      },
      "t_uint256": {
        "encoding": "inplace",
        "label": "uint256",
        "numberOfBytes": "32"
      },
      "t_uint64": {
        "encoding": "inplace",
        "label": "uint64",
        "numberOfBytes": "8"
      }
    }
  }
}